


ARM Macro Assembler    Page 1 


    1 00000000         ;/* ----------------------------------------------------
                       --------------------- */
    2 00000000         ;/*  @file:    startup_MM32F3277.s                      
                                             */
    3 00000000         ;/*  @purpose: CMSIS Cortex-M0 Core Device Startup File 
                                             */
    4 00000000         ;/*                                                     
                                             */
    5 00000000         ;/*  @version: 1.0                                      
                                             */
    6 00000000         ;/*  @date:    2021-07-21                               
                                             */
    7 00000000         ;/*  @build:   b210721                                  
                                             */
    8 00000000         ;/* ----------------------------------------------------
                       --------------------- */
    9 00000000         ;/*                                                     
                                             */
   10 00000000         ;/* Copyright 2021 MindMotion                           
                                             */
   11 00000000         ;/* All rights reserved.                                
                                             */
   12 00000000         ;/*                                                     
                                             */
   13 00000000         ;/* SPDX-License-Identifier: BSD-3-Clause               
                                             */
   14 00000000         ;/******************************************************
                       ***********************/
   15 00000000         ;/* Version: MDK for ARM Embedded Processors            
                                             */
   16 00000000         ;/******************************************************
                       ***********************/
   17 00000000         
   18 00000000                 PRESERVE8
   19 00000000                 THUMB
   20 00000000         
   21 00000000         ; Vector Table Mapped to Address 0 at Reset
   22 00000000                 AREA             RESET, DATA, READONLY
   23 00000000                 EXPORT           __Vectors
   24 00000000                 EXPORT           __Vectors_End
   25 00000000                 EXPORT           __Vectors_Size
   26 00000000                 IMPORT           |Image$$ARM_LIB_STACK$$ZI$$Limi
t|
   27 00000000         
   28 00000000 00000000 
                       __Vectors
                               DCD              |Image$$ARM_LIB_STACK$$ZI$$Limi
t| 
                                                            ;         Top of St
                                                            ack
   29 00000004 00000000        DCD              Reset_Handler ;         Reset H
                                                            andler
   30 00000008 00000000        DCD              NMI_Handler ; -14     NMI Handl
                                                            er
   31 0000000C 00000000        DCD              HardFault_Handler ; -13     Har
                                                            d Fault Handler
   32 00000010 00000000        DCD              MemManage_Handler ; -12     MPU
                                                             Fault Handler
   33 00000014 00000000        DCD              BusFault_Handler ; -11     Bus 



ARM Macro Assembler    Page 2 


                                                            Fault Handler
   34 00000018 00000000        DCD              UsageFault_Handler ; -10     Us
                                                            age Fault Handler
   35 0000001C         
   36 0000001C 00000000        DCD              0           ; -9      Reserved
   37 00000020 00000000        DCD              0           ; -8      Reserved
   38 00000024 00000000        DCD              0           ; -7      Reserved
   39 00000028 00000000        DCD              0           ; -6      Reserved
   40 0000002C 00000000        DCD              SVCall_Handler ; -5      SVCall
                                                             Handler
   41 00000030 00000000        DCD              DebugMonitor_Handler ; -4      
                                                            Debug Monitor Handl
                                                            er
   42 00000034 00000000        DCD              0           ; -3      Reserved
   43 00000038 00000000        DCD              PendSV_Handler ; -2      PendSV
                                                             Handler
   44 0000003C 00000000        DCD              SysTick_Handler ; -1      SysTi
                                                            ck Handler  ; Exter
                                                            nal Interrupts
   45 00000040 00000000        DCD              WWDG_IRQHandler ; 0       Windo
                                                            w Watchdog
   46 00000044 00000000        DCD              PVD_IRQHandler ; 1       PVD th
                                                            rough EXTI Line det
                                                            ect
   47 00000048 00000000        DCD              TAMPER_IRQHandler 
                                                            ; 2       Tamper
   48 0000004C 00000000        DCD              RTC_IRQHandler ; 3       RTC
   49 00000050 00000000        DCD              FLASH_IRQHandler 
                                                            ; 4       Flash
   50 00000054 00000000        DCD              RCC_CRS_IRQHandler 
                                                            ; 5       RCC
   51 00000058 00000000        DCD              EXTI0_IRQHandler ; 6       EXTI
                                                             Line 0
   52 0000005C 00000000        DCD              EXTI1_IRQHandler ; 7       EXTI
                                                             Line 1
   53 00000060 00000000        DCD              EXTI2_IRQHandler ; 8       EXTI
                                                             Line 2
   54 00000064 00000000        DCD              EXTI3_IRQHandler ; 9       EXTI
                                                             Line 3
   55 00000068 00000000        DCD              EXTI4_IRQHandler ; 10      EXTI
                                                             Line 4
   56 0000006C 00000000        DCD              DMA1_CH1_IRQHandler ; 11      D
                                                            MA1 Channel 1
   57 00000070 00000000        DCD              DMA1_CH2_IRQHandler ; 12      D
                                                            MA1 Channel 2
   58 00000074 00000000        DCD              DMA1_CH3_IRQHandler ; 13      D
                                                            MA1 Channel 3
   59 00000078 00000000        DCD              DMA1_CH4_IRQHandler ; 14      D
                                                            MA1 Channel 4
   60 0000007C 00000000        DCD              DMA1_CH5_IRQHandler ; 15      D
                                                            MA1 Channel 5
   61 00000080 00000000        DCD              DMA1_CH6_IRQHandler ; 16      D
                                                            MA1 Channel 6
   62 00000084 00000000        DCD              DMA1_CH7_IRQHandler ; 17      D
                                                            MA1 Channel 7
   63 00000088 00000000        DCD              ADC1_2_IRQHandler ; 18      ADC
                                                            1 and ADC2
   64 0000008C 00000000        DCD              FlashCache_IRQHandler ; 19     
                                                             FlashCache outage



ARM Macro Assembler    Page 3 


   65 00000090 00000000        DCD              0           ; 20      Reserved
   66 00000094 00000000        DCD              CAN1_RX_IRQHandler 
                                                            ; 21      CAN1_RX
   67 00000098 00000000        DCD              0           ; 22      Reserved
   68 0000009C 00000000        DCD              EXTI9_5_IRQHandler ; 23      EX
                                                            TI Line 9..5
   69 000000A0 00000000        DCD              TIM1_BRK_IRQHandler ; 24      T
                                                            IM1 Break
   70 000000A4 00000000        DCD              TIM1_UP_IRQHandler ; 25      TI
                                                            M1 Update
   71 000000A8 00000000        DCD              TIM1_TRG_COM_IRQHandler ; 26   
                                                               TIM1 Trigger and
                                                             Commutation
   72 000000AC 00000000        DCD              TIM1_CC_IRQHandler ; 27      TI
                                                            M1 Capture Compare
   73 000000B0 00000000        DCD              TIM2_IRQHandler ; 28      TIM2
   74 000000B4 00000000        DCD              TIM3_IRQHandler ; 29      TIM3
   75 000000B8 00000000        DCD              TIM4_IRQHandler ; 30      TIM4
   76 000000BC 00000000        DCD              I2C1_IRQHandler ; 31      I2C1 
                                                            Event
   77 000000C0 00000000        DCD              0           ; 32      Reserved
   78 000000C4 00000000        DCD              I2C2_IRQHandler ; 33      I2C2 
                                                            Event
   79 000000C8 00000000        DCD              0           ; 34      Reserved
   80 000000CC 00000000        DCD              SPI1_IRQHandler ; 35      SPI1
   81 000000D0 00000000        DCD              SPI2_IRQHandler ; 36      SPI2
   82 000000D4 00000000        DCD              UART1_IRQHandler 
                                                            ; 37      UART1
   83 000000D8 00000000        DCD              UART2_IRQHandler 
                                                            ; 38      UART2
   84 000000DC 00000000        DCD              UART3_IRQHandler 
                                                            ; 39      UART3
   85 000000E0 00000000        DCD              EXTI15_10_IRQHandler ; 40      
                                                            EXTI Line 15..10
   86 000000E4 00000000        DCD              RTCAlarm_IRQHandler ; 41      R
                                                            TC Alarm through EX
                                                            TI Line 17
   87 000000E8 00000000        DCD              OTG_FS_WKUP_IRQHandler ; 42    
                                                              USB OTG FS Wakeup
                                                             through EXTI line
   88 000000EC 00000000        DCD              TIM8_BRK_IRQHandler ; 43      T
                                                            IM8 Break
   89 000000F0 00000000        DCD              TIM8_UP_IRQHandler ; 44      TI
                                                            M8 Update
   90 000000F4 00000000        DCD              TIM8_TRG_COM_IRQHandler ; 45   
                                                               TIM8 Trigger and
                                                             Commutation
   91 000000F8 00000000        DCD              TIM8_CC_IRQHandler ; 46      TI
                                                            M8 Capture Compare
   92 000000FC 00000000        DCD              ADC3_IRQHandler ; 47      ADC3
   93 00000100 00000000        DCD              0           ; 48      Reserved
   94 00000104 00000000        DCD              SDIO_IRQHandler ; 49      SDIO
   95 00000108 00000000        DCD              TIM5_IRQHandler ; 50      TIM5
   96 0000010C 00000000        DCD              SPI3_IRQHandler ; 51      SPI3
   97 00000110 00000000        DCD              UART4_IRQHandler 
                                                            ; 52      UART4
   98 00000114 00000000        DCD              UART5_IRQHandler 
                                                            ; 53      UART5
   99 00000118 00000000        DCD              TIM6_IRQHandler ; 54      TIM6



ARM Macro Assembler    Page 4 


  100 0000011C 00000000        DCD              TIM7_IRQHandler ; 55      TIM7
  101 00000120 00000000        DCD              DMA2_CH1_IRQHandler ; 56      D
                                                            MA2 Channel 1
  102 00000124 00000000        DCD              DMA2_CH2_IRQHandler ; 57      D
                                                            MA2 Channel 2
  103 00000128 00000000        DCD              DMA2_CH3_IRQHandler ; 58      D
                                                            MA2 Channel 3
  104 0000012C 00000000        DCD              DMA2_CH4_IRQHandler ; 59      D
                                                            MA2 Channel 4
  105 00000130 00000000        DCD              DMA2_CH5_IRQHandler ; 60      D
                                                            MA2 Channel 5
  106 00000134 00000000        DCD              ETH_IRQHandler 
                                                            ; 61      Ethernet
  107 00000138 00000000        DCD              0           ; 62      Reserved
  108 0000013C 00000000        DCD              0           ; 63      Reserved
  109 00000140 00000000        DCD              COMP1_2_IRQHandler ; 64      CO
                                                            MP1,COMP2
  110 00000144 00000000        DCD              0           ; 65      Reserved
  111 00000148 00000000        DCD              0           ; 66      Reserved
  112 0000014C 00000000        DCD              OTG_FS_IRQHandler ; 67      USB
                                                             OTG_FullSpeed
  113 00000150 00000000        DCD              0           ; 68      Reserved
  114 00000154 00000000        DCD              0           ; 69      Reserved
  115 00000158 00000000        DCD              0           ; 70      Reserved
  116 0000015C 00000000        DCD              UART6_IRQHandler 
                                                            ; 71      UART6
  117 00000160 00000000        DCD              0           ; 72      Reserved
  118 00000164 00000000        DCD              0           ; 73      Reserved
  119 00000168 00000000        DCD              0           ; 74      Reserved
  120 0000016C 00000000        DCD              0           ; 75      Reserved
  121 00000170 00000000        DCD              0           ; 76      Reserved
  122 00000174 00000000        DCD              0           ; 77      Reserved
  123 00000178 00000000        DCD              0           ; 78      Reserved
  124 0000017C 00000000        DCD              0           ; 79      Reserved
  125 00000180 00000000        DCD              0           ; 80      Reserved
  126 00000184 00000000        DCD              0           ; 81      Reserved
  127 00000188 00000000        DCD              UART7_IRQHandler 
                                                            ; 82      UART7
  128 0000018C 00000000        DCD              UART8_IRQHandler 
                                                            ; 83      UART8
  129 00000190         
  130 00000190         __Vectors_End
  131 00000190         
  132 00000190 00000190 
                       __Vectors_Size
                               EQU              __Vectors_End - __Vectors
  133 00000190         
  134 00000190                 AREA             |.text|, CODE, READONLY
  135 00000000         
  136 00000000         ; Reset handler
  137 00000000         Reset_Handler
                               PROC
  138 00000000                 EXPORT           Reset_Handler              [WEA
K]
  139 00000000                 IMPORT           SystemInit
  140 00000000                 IMPORT           __main
  141 00000000 4806            LDR              R0, =SystemInit
  142 00000002 4780            BLX              R0
  143 00000004 4806            LDR              R0, =__main



ARM Macro Assembler    Page 5 


  144 00000006 4700            BX               R0
  145 00000008                 ENDP
  146 00000008         
  147 00000008         ; Dummy Exception Handlers (infinite loops which can be 
                       modified)
  148 00000008         
  149 00000008         NMI_Handler
                               PROC
  150 00000008                 EXPORT           NMI_Handler                [WEA
K]
  151 00000008 E7FE            B                .
  152 0000000A                 ENDP
  154 0000000A         HardFault_Handler
                               PROC
  155 0000000A                 EXPORT           HardFault_Handler          [WEA
K]
  156 0000000A E7FE            B                .
  157 0000000C                 ENDP
  159 0000000C         MemManage_Handler
                               PROC
  160 0000000C                 EXPORT           MemManage_Handler          [WEA
K]
  161 0000000C E7FE            B                .
  162 0000000E                 ENDP
  164 0000000E         BusFault_Handler
                               PROC
  165 0000000E                 EXPORT           BusFault_Handler           [WEA
K]
  166 0000000E E7FE            B                .
  167 00000010                 ENDP
  169 00000010         UsageFault_Handler
                               PROC
  170 00000010                 EXPORT           UsageFault_Handler         [WEA
K]
  171 00000010 E7FE            B                .
  172 00000012                 ENDP
  173 00000012         SVCall_Handler
                               PROC
  174 00000012                 EXPORT           SVCall_Handler                [
WEAK]
  175 00000012 E7FE            B                .
  176 00000014                 ENDP
  178 00000014         DebugMonitor_Handler
                               PROC
  179 00000014                 EXPORT           DebugMonitor_Handler           
[WEAK]
  180 00000014 E7FE            B                .
  181 00000016                 ENDP
  182 00000016         PendSV_Handler
                               PROC
  183 00000016                 EXPORT           PendSV_Handler             [WEA
K]
  184 00000016 E7FE            B                .
  185 00000018                 ENDP
  186 00000018         SysTick_Handler
                               PROC
  187 00000018                 EXPORT           SysTick_Handler            [WEA
K]
  188 00000018 E7FE            B                .



ARM Macro Assembler    Page 6 


  189 0000001A                 ENDP
  190 0000001A         
  191 0000001A         Default_Handler
                               PROC
  192 0000001A         
  193 0000001A                 EXPORT           WWDG_IRQHandler            [WEA
K]
  194 0000001A                 EXPORT           PVD_IRQHandler             [WEA
K]
  195 0000001A                 EXPORT           TAMPER_IRQHandler          [WEA
K]
  196 0000001A                 EXPORT           RTC_IRQHandler             [WEA
K]
  197 0000001A                 EXPORT           FLASH_IRQHandler           [WEA
K]
  198 0000001A                 EXPORT           RCC_CRS_IRQHandler         [WEA
K]
  199 0000001A                 EXPORT           EXTI0_IRQHandler           [WEA
K]
  200 0000001A                 EXPORT           EXTI1_IRQHandler           [WEA
K]
  201 0000001A                 EXPORT           EXTI2_IRQHandler           [WEA
K]
  202 0000001A                 EXPORT           EXTI3_IRQHandler           [WEA
K]
  203 0000001A                 EXPORT           EXTI4_IRQHandler           [WEA
K]
  204 0000001A                 EXPORT           DMA1_CH1_IRQHandler        [WEA
K]
  205 0000001A                 EXPORT           DMA1_CH2_IRQHandler        [WEA
K]
  206 0000001A                 EXPORT           DMA1_CH3_IRQHandler        [WEA
K]
  207 0000001A                 EXPORT           DMA1_CH4_IRQHandler        [WEA
K]
  208 0000001A                 EXPORT           DMA1_CH5_IRQHandler        [WEA
K]
  209 0000001A                 EXPORT           DMA1_CH6_IRQHandler        [WEA
K]
  210 0000001A                 EXPORT           DMA1_CH7_IRQHandler        [WEA
K]
  211 0000001A                 EXPORT           ADC1_2_IRQHandler          [WEA
K]
  212 0000001A                 EXPORT           FlashCache_IRQHandler      [WEA
K]
  213 0000001A                 EXPORT           CAN1_RX_IRQHandler         [WEA
K]
  214 0000001A                 EXPORT           EXTI9_5_IRQHandler         [WEA
K]
  215 0000001A                 EXPORT           TIM1_BRK_IRQHandler        [WEA
K]
  216 0000001A                 EXPORT           TIM1_UP_IRQHandler         [WEA
K]
  217 0000001A                 EXPORT           TIM1_TRG_COM_IRQHandler    [WEA
K]
  218 0000001A                 EXPORT           TIM1_CC_IRQHandler         [WEA
K]
  219 0000001A                 EXPORT           TIM2_IRQHandler            [WEA
K]



ARM Macro Assembler    Page 7 


  220 0000001A                 EXPORT           TIM3_IRQHandler            [WEA
K]
  221 0000001A                 EXPORT           TIM4_IRQHandler            [WEA
K]
  222 0000001A                 EXPORT           I2C1_IRQHandler            [WEA
K]
  223 0000001A                 EXPORT           I2C2_IRQHandler            [WEA
K]
  224 0000001A                 EXPORT           SPI1_IRQHandler            [WEA
K]
  225 0000001A                 EXPORT           SPI2_IRQHandler            [WEA
K]
  226 0000001A                 EXPORT           UART1_IRQHandler           [WEA
K]
  227 0000001A                 EXPORT           UART2_IRQHandler           [WEA
K]
  228 0000001A                 EXPORT           UART3_IRQHandler           [WEA
K]
  229 0000001A                 EXPORT           EXTI15_10_IRQHandler       [WEA
K]
  230 0000001A                 EXPORT           RTCAlarm_IRQHandler        [WEA
K]
  231 0000001A                 EXPORT           OTG_FS_WKUP_IRQHandler     [WEA
K]
  232 0000001A                 EXPORT           TIM8_BRK_IRQHandler        [WEA
K]
  233 0000001A                 EXPORT           TIM8_UP_IRQHandler         [WEA
K]
  234 0000001A                 EXPORT           TIM8_TRG_COM_IRQHandler    [WEA
K]
  235 0000001A                 EXPORT           TIM8_CC_IRQHandler         [WEA
K]
  236 0000001A                 EXPORT           ADC3_IRQHandler            [WEA
K]
  237 0000001A                 EXPORT           SDIO_IRQHandler            [WEA
K]
  238 0000001A                 EXPORT           TIM5_IRQHandler            [WEA
K]
  239 0000001A                 EXPORT           SPI3_IRQHandler            [WEA
K]
  240 0000001A                 EXPORT           UART4_IRQHandler           [WEA
K]
  241 0000001A                 EXPORT           UART5_IRQHandler           [WEA
K]
  242 0000001A                 EXPORT           TIM6_IRQHandler            [WEA
K]
  243 0000001A                 EXPORT           TIM7_IRQHandler            [WEA
K]
  244 0000001A                 EXPORT           DMA2_CH1_IRQHandler        [WEA
K]
  245 0000001A                 EXPORT           DMA2_CH2_IRQHandler        [WEA
K]
  246 0000001A                 EXPORT           DMA2_CH3_IRQHandler        [WEA
K]
  247 0000001A                 EXPORT           DMA2_CH4_IRQHandler        [WEA
K]
  248 0000001A                 EXPORT           DMA2_CH5_IRQHandler        [WEA
K]
  249 0000001A                 EXPORT           ETH_IRQHandler             [WEA



ARM Macro Assembler    Page 8 


K]
  250 0000001A                 EXPORT           COMP1_2_IRQHandler         [WEA
K]
  251 0000001A                 EXPORT           OTG_FS_IRQHandler          [WEA
K]
  252 0000001A                 EXPORT           UART6_IRQHandler           [WEA
K]
  253 0000001A                 EXPORT           UART7_IRQHandler           [WEA
K]
  254 0000001A                 EXPORT           UART8_IRQHandler           [WEA
K]
  255 0000001A         
  256 0000001A         WWDG_IRQHandler
  257 0000001A         PVD_IRQHandler
  258 0000001A         TAMPER_IRQHandler
  259 0000001A         RTC_IRQHandler
  260 0000001A         FLASH_IRQHandler
  261 0000001A         RCC_CRS_IRQHandler
  262 0000001A         EXTI0_IRQHandler
  263 0000001A         EXTI1_IRQHandler
  264 0000001A         EXTI2_IRQHandler
  265 0000001A         EXTI3_IRQHandler
  266 0000001A         EXTI4_IRQHandler
  267 0000001A         DMA1_CH1_IRQHandler
  268 0000001A         DMA1_CH2_IRQHandler
  269 0000001A         DMA1_CH3_IRQHandler
  270 0000001A         DMA1_CH4_IRQHandler
  271 0000001A         DMA1_CH5_IRQHandler
  272 0000001A         DMA1_CH6_IRQHandler
  273 0000001A         DMA1_CH7_IRQHandler
  274 0000001A         ADC1_2_IRQHandler
  275 0000001A         FlashCache_IRQHandler
  276 0000001A         CAN1_RX_IRQHandler
  277 0000001A         EXTI9_5_IRQHandler
  278 0000001A         TIM1_BRK_IRQHandler
  279 0000001A         TIM1_UP_IRQHandler
  280 0000001A         TIM1_TRG_COM_IRQHandler
  281 0000001A         TIM1_CC_IRQHandler
  282 0000001A         TIM2_IRQHandler
  283 0000001A         TIM3_IRQHandler
  284 0000001A         TIM4_IRQHandler
  285 0000001A         I2C1_IRQHandler
  286 0000001A         I2C2_IRQHandler
  287 0000001A         SPI1_IRQHandler
  288 0000001A         SPI2_IRQHandler
  289 0000001A         UART1_IRQHandler
  290 0000001A         UART2_IRQHandler
  291 0000001A         UART3_IRQHandler
  292 0000001A         EXTI15_10_IRQHandler
  293 0000001A         RTCAlarm_IRQHandler
  294 0000001A         OTG_FS_WKUP_IRQHandler
  295 0000001A         TIM8_BRK_IRQHandler
  296 0000001A         TIM8_UP_IRQHandler
  297 0000001A         TIM8_TRG_COM_IRQHandler
  298 0000001A         TIM8_CC_IRQHandler
  299 0000001A         ADC3_IRQHandler
  300 0000001A         SDIO_IRQHandler
  301 0000001A         TIM5_IRQHandler
  302 0000001A         SPI3_IRQHandler



ARM Macro Assembler    Page 9 


  303 0000001A         UART4_IRQHandler
  304 0000001A         UART5_IRQHandler
  305 0000001A         TIM6_IRQHandler
  306 0000001A         TIM7_IRQHandler
  307 0000001A         DMA2_CH1_IRQHandler
  308 0000001A         DMA2_CH2_IRQHandler
  309 0000001A         DMA2_CH3_IRQHandler
  310 0000001A         DMA2_CH4_IRQHandler
  311 0000001A         DMA2_CH5_IRQHandler
  312 0000001A         ETH_IRQHandler
  313 0000001A         COMP1_2_IRQHandler
  314 0000001A         OTG_FS_IRQHandler
  315 0000001A         UART6_IRQHandler
  316 0000001A         UART7_IRQHandler
  317 0000001A         UART8_IRQHandler
  318 0000001A E7FE            B                .
  319 0000001C                 ENDP
  320 0000001C                 ALIGN
  321 0000001C                 END
              00000000 
              00000000 
Command Line: --debug --xref --diag_suppress=9931 --cpu=Cortex-M3 --apcs=interw
ork --depend=.\objects\startup_mm32f3273g.d -o.\objects\startup_mm32f3273g.o -I
C:\Users\FonyS\AppData\Local\Arm\Packs\MindMotion\MM32F3270_DFP\1.0.5\Device\MM
32F327x\Include --predefine="__UVISION_VERSION SETA 534" --predefine="MM32F3277
G8P SETA 1" --list=.\listings\startup_mm32f3273g.lst ..\device\mdk\startup_mm32
f3273g.s



ARM Macro Assembler    Page 1 Alphabetic symbol ordering
Relocatable symbols

RESET 00000000

Symbol: RESET
   Definitions
      At line 22 in file ..\device\mdk\startup_mm32f3273g.s
   Uses
      None
Comment: RESET unused
__Vectors 00000000

Symbol: __Vectors
   Definitions
      At line 28 in file ..\device\mdk\startup_mm32f3273g.s
   Uses
      At line 23 in file ..\device\mdk\startup_mm32f3273g.s
      At line 132 in file ..\device\mdk\startup_mm32f3273g.s

__Vectors_End 00000190

Symbol: __Vectors_End
   Definitions
      At line 130 in file ..\device\mdk\startup_mm32f3273g.s
   Uses
      At line 24 in file ..\device\mdk\startup_mm32f3273g.s
      At line 132 in file ..\device\mdk\startup_mm32f3273g.s

3 symbols



ARM Macro Assembler    Page 1 Alphabetic symbol ordering
Relocatable symbols

.text 00000000

Symbol: .text
   Definitions
      At line 134 in file ..\device\mdk\startup_mm32f3273g.s
   Uses
      None
Comment: .text unused
ADC1_2_IRQHandler 0000001A

Symbol: ADC1_2_IRQHandler
   Definitions
      At line 274 in file ..\device\mdk\startup_mm32f3273g.s
   Uses
      At line 63 in file ..\device\mdk\startup_mm32f3273g.s
      At line 211 in file ..\device\mdk\startup_mm32f3273g.s

ADC3_IRQHandler 0000001A

Symbol: ADC3_IRQHandler
   Definitions
      At line 299 in file ..\device\mdk\startup_mm32f3273g.s
   Uses
      At line 92 in file ..\device\mdk\startup_mm32f3273g.s
      At line 236 in file ..\device\mdk\startup_mm32f3273g.s

BusFault_Handler 0000000E

Symbol: BusFault_Handler
   Definitions
      At line 164 in file ..\device\mdk\startup_mm32f3273g.s
   Uses
      At line 33 in file ..\device\mdk\startup_mm32f3273g.s
      At line 165 in file ..\device\mdk\startup_mm32f3273g.s

CAN1_RX_IRQHandler 0000001A

Symbol: CAN1_RX_IRQHandler
   Definitions
      At line 276 in file ..\device\mdk\startup_mm32f3273g.s
   Uses
      At line 66 in file ..\device\mdk\startup_mm32f3273g.s
      At line 213 in file ..\device\mdk\startup_mm32f3273g.s

COMP1_2_IRQHandler 0000001A

Symbol: COMP1_2_IRQHandler
   Definitions
      At line 313 in file ..\device\mdk\startup_mm32f3273g.s
   Uses
      At line 109 in file ..\device\mdk\startup_mm32f3273g.s
      At line 250 in file ..\device\mdk\startup_mm32f3273g.s

DMA1_CH1_IRQHandler 0000001A

Symbol: DMA1_CH1_IRQHandler
   Definitions
      At line 267 in file ..\device\mdk\startup_mm32f3273g.s
   Uses



ARM Macro Assembler    Page 2 Alphabetic symbol ordering
Relocatable symbols

      At line 56 in file ..\device\mdk\startup_mm32f3273g.s
      At line 204 in file ..\device\mdk\startup_mm32f3273g.s

DMA1_CH2_IRQHandler 0000001A

Symbol: DMA1_CH2_IRQHandler
   Definitions
      At line 268 in file ..\device\mdk\startup_mm32f3273g.s
   Uses
      At line 57 in file ..\device\mdk\startup_mm32f3273g.s
      At line 205 in file ..\device\mdk\startup_mm32f3273g.s

DMA1_CH3_IRQHandler 0000001A

Symbol: DMA1_CH3_IRQHandler
   Definitions
      At line 269 in file ..\device\mdk\startup_mm32f3273g.s
   Uses
      At line 58 in file ..\device\mdk\startup_mm32f3273g.s
      At line 206 in file ..\device\mdk\startup_mm32f3273g.s

DMA1_CH4_IRQHandler 0000001A

Symbol: DMA1_CH4_IRQHandler
   Definitions
      At line 270 in file ..\device\mdk\startup_mm32f3273g.s
   Uses
      At line 59 in file ..\device\mdk\startup_mm32f3273g.s
      At line 207 in file ..\device\mdk\startup_mm32f3273g.s

DMA1_CH5_IRQHandler 0000001A

Symbol: DMA1_CH5_IRQHandler
   Definitions
      At line 271 in file ..\device\mdk\startup_mm32f3273g.s
   Uses
      At line 60 in file ..\device\mdk\startup_mm32f3273g.s
      At line 208 in file ..\device\mdk\startup_mm32f3273g.s

DMA1_CH6_IRQHandler 0000001A

Symbol: DMA1_CH6_IRQHandler
   Definitions
      At line 272 in file ..\device\mdk\startup_mm32f3273g.s
   Uses
      At line 61 in file ..\device\mdk\startup_mm32f3273g.s
      At line 209 in file ..\device\mdk\startup_mm32f3273g.s

DMA1_CH7_IRQHandler 0000001A

Symbol: DMA1_CH7_IRQHandler
   Definitions
      At line 273 in file ..\device\mdk\startup_mm32f3273g.s
   Uses
      At line 62 in file ..\device\mdk\startup_mm32f3273g.s
      At line 210 in file ..\device\mdk\startup_mm32f3273g.s

DMA2_CH1_IRQHandler 0000001A




ARM Macro Assembler    Page 3 Alphabetic symbol ordering
Relocatable symbols

Symbol: DMA2_CH1_IRQHandler
   Definitions
      At line 307 in file ..\device\mdk\startup_mm32f3273g.s
   Uses
      At line 101 in file ..\device\mdk\startup_mm32f3273g.s
      At line 244 in file ..\device\mdk\startup_mm32f3273g.s

DMA2_CH2_IRQHandler 0000001A

Symbol: DMA2_CH2_IRQHandler
   Definitions
      At line 308 in file ..\device\mdk\startup_mm32f3273g.s
   Uses
      At line 102 in file ..\device\mdk\startup_mm32f3273g.s
      At line 245 in file ..\device\mdk\startup_mm32f3273g.s

DMA2_CH3_IRQHandler 0000001A

Symbol: DMA2_CH3_IRQHandler
   Definitions
      At line 309 in file ..\device\mdk\startup_mm32f3273g.s
   Uses
      At line 103 in file ..\device\mdk\startup_mm32f3273g.s
      At line 246 in file ..\device\mdk\startup_mm32f3273g.s

DMA2_CH4_IRQHandler 0000001A

Symbol: DMA2_CH4_IRQHandler
   Definitions
      At line 310 in file ..\device\mdk\startup_mm32f3273g.s
   Uses
      At line 104 in file ..\device\mdk\startup_mm32f3273g.s
      At line 247 in file ..\device\mdk\startup_mm32f3273g.s

DMA2_CH5_IRQHandler 0000001A

Symbol: DMA2_CH5_IRQHandler
   Definitions
      At line 311 in file ..\device\mdk\startup_mm32f3273g.s
   Uses
      At line 105 in file ..\device\mdk\startup_mm32f3273g.s
      At line 248 in file ..\device\mdk\startup_mm32f3273g.s

DebugMonitor_Handler 00000014

Symbol: DebugMonitor_Handler
   Definitions
      At line 178 in file ..\device\mdk\startup_mm32f3273g.s
   Uses
      At line 41 in file ..\device\mdk\startup_mm32f3273g.s
      At line 179 in file ..\device\mdk\startup_mm32f3273g.s

Default_Handler 0000001A

Symbol: Default_Handler
   Definitions
      At line 191 in file ..\device\mdk\startup_mm32f3273g.s
   Uses
      None



ARM Macro Assembler    Page 4 Alphabetic symbol ordering
Relocatable symbols

Comment: Default_Handler unused
ETH_IRQHandler 0000001A

Symbol: ETH_IRQHandler
   Definitions
      At line 312 in file ..\device\mdk\startup_mm32f3273g.s
   Uses
      At line 106 in file ..\device\mdk\startup_mm32f3273g.s
      At line 249 in file ..\device\mdk\startup_mm32f3273g.s

EXTI0_IRQHandler 0000001A

Symbol: EXTI0_IRQHandler
   Definitions
      At line 262 in file ..\device\mdk\startup_mm32f3273g.s
   Uses
      At line 51 in file ..\device\mdk\startup_mm32f3273g.s
      At line 199 in file ..\device\mdk\startup_mm32f3273g.s

EXTI15_10_IRQHandler 0000001A

Symbol: EXTI15_10_IRQHandler
   Definitions
      At line 292 in file ..\device\mdk\startup_mm32f3273g.s
   Uses
      At line 85 in file ..\device\mdk\startup_mm32f3273g.s
      At line 229 in file ..\device\mdk\startup_mm32f3273g.s

EXTI1_IRQHandler 0000001A

Symbol: EXTI1_IRQHandler
   Definitions
      At line 263 in file ..\device\mdk\startup_mm32f3273g.s
   Uses
      At line 52 in file ..\device\mdk\startup_mm32f3273g.s
      At line 200 in file ..\device\mdk\startup_mm32f3273g.s

EXTI2_IRQHandler 0000001A

Symbol: EXTI2_IRQHandler
   Definitions
      At line 264 in file ..\device\mdk\startup_mm32f3273g.s
   Uses
      At line 53 in file ..\device\mdk\startup_mm32f3273g.s
      At line 201 in file ..\device\mdk\startup_mm32f3273g.s

EXTI3_IRQHandler 0000001A

Symbol: EXTI3_IRQHandler
   Definitions
      At line 265 in file ..\device\mdk\startup_mm32f3273g.s
   Uses
      At line 54 in file ..\device\mdk\startup_mm32f3273g.s
      At line 202 in file ..\device\mdk\startup_mm32f3273g.s

EXTI4_IRQHandler 0000001A

Symbol: EXTI4_IRQHandler
   Definitions



ARM Macro Assembler    Page 5 Alphabetic symbol ordering
Relocatable symbols

      At line 266 in file ..\device\mdk\startup_mm32f3273g.s
   Uses
      At line 55 in file ..\device\mdk\startup_mm32f3273g.s
      At line 203 in file ..\device\mdk\startup_mm32f3273g.s

EXTI9_5_IRQHandler 0000001A

Symbol: EXTI9_5_IRQHandler
   Definitions
      At line 277 in file ..\device\mdk\startup_mm32f3273g.s
   Uses
      At line 68 in file ..\device\mdk\startup_mm32f3273g.s
      At line 214 in file ..\device\mdk\startup_mm32f3273g.s

FLASH_IRQHandler 0000001A

Symbol: FLASH_IRQHandler
   Definitions
      At line 260 in file ..\device\mdk\startup_mm32f3273g.s
   Uses
      At line 49 in file ..\device\mdk\startup_mm32f3273g.s
      At line 197 in file ..\device\mdk\startup_mm32f3273g.s

FlashCache_IRQHandler 0000001A

Symbol: FlashCache_IRQHandler
   Definitions
      At line 275 in file ..\device\mdk\startup_mm32f3273g.s
   Uses
      At line 64 in file ..\device\mdk\startup_mm32f3273g.s
      At line 212 in file ..\device\mdk\startup_mm32f3273g.s

HardFault_Handler 0000000A

Symbol: HardFault_Handler
   Definitions
      At line 154 in file ..\device\mdk\startup_mm32f3273g.s
   Uses
      At line 31 in file ..\device\mdk\startup_mm32f3273g.s
      At line 155 in file ..\device\mdk\startup_mm32f3273g.s

I2C1_IRQHandler 0000001A

Symbol: I2C1_IRQHandler
   Definitions
      At line 285 in file ..\device\mdk\startup_mm32f3273g.s
   Uses
      At line 76 in file ..\device\mdk\startup_mm32f3273g.s
      At line 222 in file ..\device\mdk\startup_mm32f3273g.s

I2C2_IRQHandler 0000001A

Symbol: I2C2_IRQHandler
   Definitions
      At line 286 in file ..\device\mdk\startup_mm32f3273g.s
   Uses
      At line 78 in file ..\device\mdk\startup_mm32f3273g.s
      At line 223 in file ..\device\mdk\startup_mm32f3273g.s




ARM Macro Assembler    Page 6 Alphabetic symbol ordering
Relocatable symbols

MemManage_Handler 0000000C

Symbol: MemManage_Handler
   Definitions
      At line 159 in file ..\device\mdk\startup_mm32f3273g.s
   Uses
      At line 32 in file ..\device\mdk\startup_mm32f3273g.s
      At line 160 in file ..\device\mdk\startup_mm32f3273g.s

NMI_Handler 00000008

Symbol: NMI_Handler
   Definitions
      At line 149 in file ..\device\mdk\startup_mm32f3273g.s
   Uses
      At line 30 in file ..\device\mdk\startup_mm32f3273g.s
      At line 150 in file ..\device\mdk\startup_mm32f3273g.s

OTG_FS_IRQHandler 0000001A

Symbol: OTG_FS_IRQHandler
   Definitions
      At line 314 in file ..\device\mdk\startup_mm32f3273g.s
   Uses
      At line 112 in file ..\device\mdk\startup_mm32f3273g.s
      At line 251 in file ..\device\mdk\startup_mm32f3273g.s

OTG_FS_WKUP_IRQHandler 0000001A

Symbol: OTG_FS_WKUP_IRQHandler
   Definitions
      At line 294 in file ..\device\mdk\startup_mm32f3273g.s
   Uses
      At line 87 in file ..\device\mdk\startup_mm32f3273g.s
      At line 231 in file ..\device\mdk\startup_mm32f3273g.s

PVD_IRQHandler 0000001A

Symbol: PVD_IRQHandler
   Definitions
      At line 257 in file ..\device\mdk\startup_mm32f3273g.s
   Uses
      At line 46 in file ..\device\mdk\startup_mm32f3273g.s
      At line 194 in file ..\device\mdk\startup_mm32f3273g.s

PendSV_Handler 00000016

Symbol: PendSV_Handler
   Definitions
      At line 182 in file ..\device\mdk\startup_mm32f3273g.s
   Uses
      At line 43 in file ..\device\mdk\startup_mm32f3273g.s
      At line 183 in file ..\device\mdk\startup_mm32f3273g.s

RCC_CRS_IRQHandler 0000001A

Symbol: RCC_CRS_IRQHandler
   Definitions
      At line 261 in file ..\device\mdk\startup_mm32f3273g.s



ARM Macro Assembler    Page 7 Alphabetic symbol ordering
Relocatable symbols

   Uses
      At line 50 in file ..\device\mdk\startup_mm32f3273g.s
      At line 198 in file ..\device\mdk\startup_mm32f3273g.s

RTCAlarm_IRQHandler 0000001A

Symbol: RTCAlarm_IRQHandler
   Definitions
      At line 293 in file ..\device\mdk\startup_mm32f3273g.s
   Uses
      At line 86 in file ..\device\mdk\startup_mm32f3273g.s
      At line 230 in file ..\device\mdk\startup_mm32f3273g.s

RTC_IRQHandler 0000001A

Symbol: RTC_IRQHandler
   Definitions
      At line 259 in file ..\device\mdk\startup_mm32f3273g.s
   Uses
      At line 48 in file ..\device\mdk\startup_mm32f3273g.s
      At line 196 in file ..\device\mdk\startup_mm32f3273g.s

Reset_Handler 00000000

Symbol: Reset_Handler
   Definitions
      At line 137 in file ..\device\mdk\startup_mm32f3273g.s
   Uses
      At line 29 in file ..\device\mdk\startup_mm32f3273g.s
      At line 138 in file ..\device\mdk\startup_mm32f3273g.s

SDIO_IRQHandler 0000001A

Symbol: SDIO_IRQHandler
   Definitions
      At line 300 in file ..\device\mdk\startup_mm32f3273g.s
   Uses
      At line 94 in file ..\device\mdk\startup_mm32f3273g.s
      At line 237 in file ..\device\mdk\startup_mm32f3273g.s

SPI1_IRQHandler 0000001A

Symbol: SPI1_IRQHandler
   Definitions
      At line 287 in file ..\device\mdk\startup_mm32f3273g.s
   Uses
      At line 80 in file ..\device\mdk\startup_mm32f3273g.s
      At line 224 in file ..\device\mdk\startup_mm32f3273g.s

SPI2_IRQHandler 0000001A

Symbol: SPI2_IRQHandler
   Definitions
      At line 288 in file ..\device\mdk\startup_mm32f3273g.s
   Uses
      At line 81 in file ..\device\mdk\startup_mm32f3273g.s
      At line 225 in file ..\device\mdk\startup_mm32f3273g.s

SPI3_IRQHandler 0000001A



ARM Macro Assembler    Page 8 Alphabetic symbol ordering
Relocatable symbols


Symbol: SPI3_IRQHandler
   Definitions
      At line 302 in file ..\device\mdk\startup_mm32f3273g.s
   Uses
      At line 96 in file ..\device\mdk\startup_mm32f3273g.s
      At line 239 in file ..\device\mdk\startup_mm32f3273g.s

SVCall_Handler 00000012

Symbol: SVCall_Handler
   Definitions
      At line 173 in file ..\device\mdk\startup_mm32f3273g.s
   Uses
      At line 40 in file ..\device\mdk\startup_mm32f3273g.s
      At line 174 in file ..\device\mdk\startup_mm32f3273g.s

SysTick_Handler 00000018

Symbol: SysTick_Handler
   Definitions
      At line 186 in file ..\device\mdk\startup_mm32f3273g.s
   Uses
      At line 44 in file ..\device\mdk\startup_mm32f3273g.s
      At line 187 in file ..\device\mdk\startup_mm32f3273g.s

TAMPER_IRQHandler 0000001A

Symbol: TAMPER_IRQHandler
   Definitions
      At line 258 in file ..\device\mdk\startup_mm32f3273g.s
   Uses
      At line 47 in file ..\device\mdk\startup_mm32f3273g.s
      At line 195 in file ..\device\mdk\startup_mm32f3273g.s

TIM1_BRK_IRQHandler 0000001A

Symbol: TIM1_BRK_IRQHandler
   Definitions
      At line 278 in file ..\device\mdk\startup_mm32f3273g.s
   Uses
      At line 69 in file ..\device\mdk\startup_mm32f3273g.s
      At line 215 in file ..\device\mdk\startup_mm32f3273g.s

TIM1_CC_IRQHandler 0000001A

Symbol: TIM1_CC_IRQHandler
   Definitions
      At line 281 in file ..\device\mdk\startup_mm32f3273g.s
   Uses
      At line 72 in file ..\device\mdk\startup_mm32f3273g.s
      At line 218 in file ..\device\mdk\startup_mm32f3273g.s

TIM1_TRG_COM_IRQHandler 0000001A

Symbol: TIM1_TRG_COM_IRQHandler
   Definitions
      At line 280 in file ..\device\mdk\startup_mm32f3273g.s
   Uses



ARM Macro Assembler    Page 9 Alphabetic symbol ordering
Relocatable symbols

      At line 71 in file ..\device\mdk\startup_mm32f3273g.s
      At line 217 in file ..\device\mdk\startup_mm32f3273g.s

TIM1_UP_IRQHandler 0000001A

Symbol: TIM1_UP_IRQHandler
   Definitions
      At line 279 in file ..\device\mdk\startup_mm32f3273g.s
   Uses
      At line 70 in file ..\device\mdk\startup_mm32f3273g.s
      At line 216 in file ..\device\mdk\startup_mm32f3273g.s

TIM2_IRQHandler 0000001A

Symbol: TIM2_IRQHandler
   Definitions
      At line 282 in file ..\device\mdk\startup_mm32f3273g.s
   Uses
      At line 73 in file ..\device\mdk\startup_mm32f3273g.s
      At line 219 in file ..\device\mdk\startup_mm32f3273g.s

TIM3_IRQHandler 0000001A

Symbol: TIM3_IRQHandler
   Definitions
      At line 283 in file ..\device\mdk\startup_mm32f3273g.s
   Uses
      At line 74 in file ..\device\mdk\startup_mm32f3273g.s
      At line 220 in file ..\device\mdk\startup_mm32f3273g.s

TIM4_IRQHandler 0000001A

Symbol: TIM4_IRQHandler
   Definitions
      At line 284 in file ..\device\mdk\startup_mm32f3273g.s
   Uses
      At line 75 in file ..\device\mdk\startup_mm32f3273g.s
      At line 221 in file ..\device\mdk\startup_mm32f3273g.s

TIM5_IRQHandler 0000001A

Symbol: TIM5_IRQHandler
   Definitions
      At line 301 in file ..\device\mdk\startup_mm32f3273g.s
   Uses
      At line 95 in file ..\device\mdk\startup_mm32f3273g.s
      At line 238 in file ..\device\mdk\startup_mm32f3273g.s

TIM6_IRQHandler 0000001A

Symbol: TIM6_IRQHandler
   Definitions
      At line 305 in file ..\device\mdk\startup_mm32f3273g.s
   Uses
      At line 99 in file ..\device\mdk\startup_mm32f3273g.s
      At line 242 in file ..\device\mdk\startup_mm32f3273g.s

TIM7_IRQHandler 0000001A




ARM Macro Assembler    Page 10 Alphabetic symbol ordering
Relocatable symbols

Symbol: TIM7_IRQHandler
   Definitions
      At line 306 in file ..\device\mdk\startup_mm32f3273g.s
   Uses
      At line 100 in file ..\device\mdk\startup_mm32f3273g.s
      At line 243 in file ..\device\mdk\startup_mm32f3273g.s

TIM8_BRK_IRQHandler 0000001A

Symbol: TIM8_BRK_IRQHandler
   Definitions
      At line 295 in file ..\device\mdk\startup_mm32f3273g.s
   Uses
      At line 88 in file ..\device\mdk\startup_mm32f3273g.s
      At line 232 in file ..\device\mdk\startup_mm32f3273g.s

TIM8_CC_IRQHandler 0000001A

Symbol: TIM8_CC_IRQHandler
   Definitions
      At line 298 in file ..\device\mdk\startup_mm32f3273g.s
   Uses
      At line 91 in file ..\device\mdk\startup_mm32f3273g.s
      At line 235 in file ..\device\mdk\startup_mm32f3273g.s

TIM8_TRG_COM_IRQHandler 0000001A

Symbol: TIM8_TRG_COM_IRQHandler
   Definitions
      At line 297 in file ..\device\mdk\startup_mm32f3273g.s
   Uses
      At line 90 in file ..\device\mdk\startup_mm32f3273g.s
      At line 234 in file ..\device\mdk\startup_mm32f3273g.s

TIM8_UP_IRQHandler 0000001A

Symbol: TIM8_UP_IRQHandler
   Definitions
      At line 296 in file ..\device\mdk\startup_mm32f3273g.s
   Uses
      At line 89 in file ..\device\mdk\startup_mm32f3273g.s
      At line 233 in file ..\device\mdk\startup_mm32f3273g.s

UART1_IRQHandler 0000001A

Symbol: UART1_IRQHandler
   Definitions
      At line 289 in file ..\device\mdk\startup_mm32f3273g.s
   Uses
      At line 82 in file ..\device\mdk\startup_mm32f3273g.s
      At line 226 in file ..\device\mdk\startup_mm32f3273g.s

UART2_IRQHandler 0000001A

Symbol: UART2_IRQHandler
   Definitions
      At line 290 in file ..\device\mdk\startup_mm32f3273g.s
   Uses
      At line 83 in file ..\device\mdk\startup_mm32f3273g.s



ARM Macro Assembler    Page 11 Alphabetic symbol ordering
Relocatable symbols

      At line 227 in file ..\device\mdk\startup_mm32f3273g.s

UART3_IRQHandler 0000001A

Symbol: UART3_IRQHandler
   Definitions
      At line 291 in file ..\device\mdk\startup_mm32f3273g.s
   Uses
      At line 84 in file ..\device\mdk\startup_mm32f3273g.s
      At line 228 in file ..\device\mdk\startup_mm32f3273g.s

UART4_IRQHandler 0000001A

Symbol: UART4_IRQHandler
   Definitions
      At line 303 in file ..\device\mdk\startup_mm32f3273g.s
   Uses
      At line 97 in file ..\device\mdk\startup_mm32f3273g.s
      At line 240 in file ..\device\mdk\startup_mm32f3273g.s

UART5_IRQHandler 0000001A

Symbol: UART5_IRQHandler
   Definitions
      At line 304 in file ..\device\mdk\startup_mm32f3273g.s
   Uses
      At line 98 in file ..\device\mdk\startup_mm32f3273g.s
      At line 241 in file ..\device\mdk\startup_mm32f3273g.s

UART6_IRQHandler 0000001A

Symbol: UART6_IRQHandler
   Definitions
      At line 315 in file ..\device\mdk\startup_mm32f3273g.s
   Uses
      At line 116 in file ..\device\mdk\startup_mm32f3273g.s
      At line 252 in file ..\device\mdk\startup_mm32f3273g.s

UART7_IRQHandler 0000001A

Symbol: UART7_IRQHandler
   Definitions
      At line 316 in file ..\device\mdk\startup_mm32f3273g.s
   Uses
      At line 127 in file ..\device\mdk\startup_mm32f3273g.s
      At line 253 in file ..\device\mdk\startup_mm32f3273g.s

UART8_IRQHandler 0000001A

Symbol: UART8_IRQHandler
   Definitions
      At line 317 in file ..\device\mdk\startup_mm32f3273g.s
   Uses
      At line 128 in file ..\device\mdk\startup_mm32f3273g.s
      At line 254 in file ..\device\mdk\startup_mm32f3273g.s

UsageFault_Handler 00000010

Symbol: UsageFault_Handler



ARM Macro Assembler    Page 12 Alphabetic symbol ordering
Relocatable symbols

   Definitions
      At line 169 in file ..\device\mdk\startup_mm32f3273g.s
   Uses
      At line 34 in file ..\device\mdk\startup_mm32f3273g.s
      At line 170 in file ..\device\mdk\startup_mm32f3273g.s

WWDG_IRQHandler 0000001A

Symbol: WWDG_IRQHandler
   Definitions
      At line 256 in file ..\device\mdk\startup_mm32f3273g.s
   Uses
      At line 45 in file ..\device\mdk\startup_mm32f3273g.s
      At line 193 in file ..\device\mdk\startup_mm32f3273g.s

74 symbols



ARM Macro Assembler    Page 1 Alphabetic symbol ordering
Absolute symbols

__Vectors_Size 00000190

Symbol: __Vectors_Size
   Definitions
      At line 132 in file ..\device\mdk\startup_mm32f3273g.s
   Uses
      At line 25 in file ..\device\mdk\startup_mm32f3273g.s
Comment: __Vectors_Size used once
1 symbol



ARM Macro Assembler    Page 1 Alphabetic symbol ordering
External symbols

Image$$ARM_LIB_STACK$$ZI$$Limit 00000000

Symbol: Image$$ARM_LIB_STACK$$ZI$$Limit
   Definitions
      At line 26 in file ..\device\mdk\startup_mm32f3273g.s
   Uses
      At line 28 in file ..\device\mdk\startup_mm32f3273g.s
Comment: Image$$ARM_LIB_STACK$$ZI$$Limit used once
SystemInit 00000000

Symbol: SystemInit
   Definitions
      At line 139 in file ..\device\mdk\startup_mm32f3273g.s
   Uses
      At line 141 in file ..\device\mdk\startup_mm32f3273g.s
Comment: SystemInit used once
__main 00000000

Symbol: __main
   Definitions
      At line 140 in file ..\device\mdk\startup_mm32f3273g.s
   Uses
      At line 143 in file ..\device\mdk\startup_mm32f3273g.s
Comment: __main used once
3 symbols
415 symbols in table
